{
  "_format": "hh-sol-artifact-1",
  "contractName": "WaveChain",
  "sourceName": "contracts/Wave.sol",
  "abi": [
    {
      "inputs": [],
      "stateMutability": "nonpayable",
      "type": "constructor"
    },
    {
      "anonymous": false,
      "inputs": [
        {
          "indexed": true,
          "internalType": "address",
          "name": "from",
          "type": "address"
        },
        {
          "indexed": false,
          "internalType": "string",
          "name": "message",
          "type": "string"
        },
        {
          "indexed": false,
          "internalType": "uint256",
          "name": "timestamp",
          "type": "uint256"
        }
      ],
      "name": "NewWave",
      "type": "event"
    },
    {
      "inputs": [],
      "name": "getAllWaves",
      "outputs": [
        {
          "components": [
            {
              "internalType": "address",
              "name": "waver",
              "type": "address"
            },
            {
              "internalType": "string",
              "name": "message",
              "type": "string"
            },
            {
              "internalType": "uint256",
              "name": "timestamp",
              "type": "uint256"
            }
          ],
          "internalType": "struct WaveChain.Wave[]",
          "name": "",
          "type": "tuple[]"
        }
      ],
      "stateMutability": "view",
      "type": "function"
    },
    {
      "inputs": [],
      "name": "getTotalWaves",
      "outputs": [
        {
          "internalType": "uint256",
          "name": "",
          "type": "uint256"
        }
      ],
      "stateMutability": "view",
      "type": "function"
    },
    {
      "inputs": [
        {
          "internalType": "address",
          "name": "key",
          "type": "address"
        }
      ],
      "name": "getWaveCount",
      "outputs": [
        {
          "internalType": "uint256",
          "name": "",
          "type": "uint256"
        }
      ],
      "stateMutability": "view",
      "type": "function"
    },
    {
      "inputs": [
        {
          "internalType": "string",
          "name": "message",
          "type": "string"
        }
      ],
      "name": "wave",
      "outputs": [],
      "stateMutability": "nonpayable",
      "type": "function"
    },
    {
      "inputs": [
        {
          "internalType": "address",
          "name": "",
          "type": "address"
        }
      ],
      "name": "waveCounts",
      "outputs": [
        {
          "internalType": "uint256",
          "name": "",
          "type": "uint256"
        }
      ],
      "stateMutability": "view",
      "type": "function"
    }
  ],
  "bytecode": "0x60806040523480156200001157600080fd5b506200005d6040518060400160405280601d81526020017f546869732069732054686f74277320666972737420636f6e74726163740000008152506200006360201b620005831760201c565b620001f7565b62000103816040516024016200007a919062000170565b6040516020818303038152906040527f41304fac000000000000000000000000000000000000000000000000000000007bffffffffffffffffffffffffffffffffffffffffffffffffffffffff19166020820180517bffffffffffffffffffffffffffffffffffffffffffffffffffffffff83818316178352505050506200010660201b60201c565b50565b60008151905060006a636f6e736f6c652e6c6f679050602083016000808483855afa5050505050565b60006200013c8262000194565b6200014881856200019f565b93506200015a818560208601620001b0565b6200016581620001e6565b840191505092915050565b600060208201905081810360008301526200018c81846200012f565b905092915050565b600081519050919050565b600082825260208201905092915050565b60005b83811015620001d0578082015181840152602081019050620001b3565b83811115620001e0576000848401525b50505050565b6000601f19601f8301169050919050565b610e5080620002076000396000f3fe608060405234801561001057600080fd5b50600436106100575760003560e01c806318c69afc1461005c578063449d46c01461008c5780635b2ae087146100a85780639a2cdc08146100d8578063bd43a908146100f6575b600080fd5b610076600480360381019061007191906108a0565b610114565b6040516100839190610b43565b60405180910390f35b6100a660048036038101906100a191906108c9565b61012c565b005b6100c260048036038101906100bd91906108a0565b61031f565b6040516100cf9190610b43565b60405180910390f35b6100e06103e7565b6040516100ed9190610b43565b60405180910390f35b6100fe610432565b60405161010b9190610a91565b60405180910390f35b60016020528060005260406000206000915090505481565b600033905060008081548092919061014390610cfb565b9190505550600160008273ffffffffffffffffffffffffffffffffffffffff1673ffffffffffffffffffffffffffffffffffffffff168152602001908152602001600020600081548092919061019890610cfb565b91905055506101ff604051806060016040528060218152602001610dfa6021913933600160008573ffffffffffffffffffffffffffffffffffffffff1673ffffffffffffffffffffffffffffffffffffffff1681526020019081526020016000205461061c565b600260405180606001604052808373ffffffffffffffffffffffffffffffffffffffff16815260200184815260200142815250908060018154018082558091505060019003906000526020600020906003020160009091909190915060008201518160000160006101000a81548173ffffffffffffffffffffffffffffffffffffffff021916908373ffffffffffffffffffffffffffffffffffffffff16021790555060208201518160010190805190602001906102be929190610780565b506040820151816002015550508073ffffffffffffffffffffffffffffffffffffffff167f6728ef66814a55b797863bf8ffcd954b19cbca4ed4f0e6cf04c980705fd82c368342604051610313929190610b13565b60405180910390a25050565b60006103a06040518060400160405280601581526020017f2573206861732077617665642025642074696d6573000000000000000000000081525083600160008673ffffffffffffffffffffffffffffffffffffffff1673ffffffffffffffffffffffffffffffffffffffff1681526020019081526020016000205461061c565b600160008373ffffffffffffffffffffffffffffffffffffffff1673ffffffffffffffffffffffffffffffffffffffff168152602001908152602001600020549050919050565b600061042a6040518060400160405280601681526020017f5765206861766520256420746f74616c207761766573000000000000000000008152506000546106bb565b600054905090565b60606002805480602002602001604051908101604052809291908181526020016000905b8282101561057a57838290600052602060002090600302016040518060600160405290816000820160009054906101000a900473ffffffffffffffffffffffffffffffffffffffff1673ffffffffffffffffffffffffffffffffffffffff1673ffffffffffffffffffffffffffffffffffffffff1681526020016001820180546104df90610c98565b80601f016020809104026020016040519081016040528092919081815260200182805461050b90610c98565b80156105585780601f1061052d57610100808354040283529160200191610558565b820191906000526020600020905b81548152906001019060200180831161053b57829003601f168201915b5050505050815260200160028201548152505081526020019060010190610456565b50505050905090565b610619816040516024016105979190610ab3565b6040516020818303038152906040527f41304fac000000000000000000000000000000000000000000000000000000007bffffffffffffffffffffffffffffffffffffffffffffffffffffffff19166020820180517bffffffffffffffffffffffffffffffffffffffffffffffffffffffff8381831617835250505050610757565b50565b6106b683838360405160240161063493929190610ad5565b6040516020818303038152906040527f07c81217000000000000000000000000000000000000000000000000000000007bffffffffffffffffffffffffffffffffffffffffffffffffffffffff19166020820180517bffffffffffffffffffffffffffffffffffffffffffffffffffffffff8381831617835250505050610757565b505050565b61075382826040516024016106d1929190610b13565b6040516020818303038152906040527f9710a9d0000000000000000000000000000000000000000000000000000000007bffffffffffffffffffffffffffffffffffffffffffffffffffffffff19166020820180517bffffffffffffffffffffffffffffffffffffffffffffffffffffffff8381831617835250505050610757565b5050565b60008151905060006a636f6e736f6c652e6c6f679050602083016000808483855afa5050505050565b82805461078c90610c98565b90600052602060002090601f0160209004810192826107ae57600085556107f5565b82601f106107c757805160ff19168380011785556107f5565b828001600101855582156107f5579182015b828111156107f45782518255916020019190600101906107d9565b5b5090506108029190610806565b5090565b5b8082111561081f576000816000905550600101610807565b5090565b600061083661083184610b83565b610b5e565b90508281526020810184848401111561084e57600080fd5b610859848285610c56565b509392505050565b60008135905061087081610de2565b92915050565b600082601f83011261088757600080fd5b8135610897848260208601610823565b91505092915050565b6000602082840312156108b257600080fd5b60006108c084828501610861565b91505092915050565b6000602082840312156108db57600080fd5b600082013567ffffffffffffffff8111156108f557600080fd5b61090184828501610876565b91505092915050565b60006109168383610a23565b905092915050565b61092781610c1a565b82525050565b61093681610c1a565b82525050565b600061094782610bc4565b6109518185610be7565b93508360208202850161096385610bb4565b8060005b8581101561099f5784840389528151610980858261090a565b945061098b83610bda565b925060208a01995050600181019050610967565b50829750879550505050505092915050565b60006109bc82610bcf565b6109c68185610bf8565b93506109d6818560208601610c65565b6109df81610dd1565b840191505092915050565b60006109f582610bcf565b6109ff8185610c09565b9350610a0f818560208601610c65565b610a1881610dd1565b840191505092915050565b6000606083016000830151610a3b600086018261091e565b5060208301518482036020860152610a5382826109b1565b9150506040830151610a686040860182610a73565b508091505092915050565b610a7c81610c4c565b82525050565b610a8b81610c4c565b82525050565b60006020820190508181036000830152610aab818461093c565b905092915050565b60006020820190508181036000830152610acd81846109ea565b905092915050565b60006060820190508181036000830152610aef81866109ea565b9050610afe602083018561092d565b610b0b6040830184610a82565b949350505050565b60006040820190508181036000830152610b2d81856109ea565b9050610b3c6020830184610a82565b9392505050565b6000602082019050610b586000830184610a82565b92915050565b6000610b68610b79565b9050610b748282610cca565b919050565b6000604051905090565b600067ffffffffffffffff821115610b9e57610b9d610da2565b5b610ba782610dd1565b9050602081019050919050565b6000819050602082019050919050565b600081519050919050565b600081519050919050565b6000602082019050919050565b600082825260208201905092915050565b600082825260208201905092915050565b600082825260208201905092915050565b6000610c2582610c2c565b9050919050565b600073ffffffffffffffffffffffffffffffffffffffff82169050919050565b6000819050919050565b82818337600083830152505050565b60005b83811015610c83578082015181840152602081019050610c68565b83811115610c92576000848401525b50505050565b60006002820490506001821680610cb057607f821691505b60208210811415610cc457610cc3610d73565b5b50919050565b610cd382610dd1565b810181811067ffffffffffffffff82111715610cf257610cf1610da2565b5b80604052505050565b6000610d0682610c4c565b91507fffffffffffffffffffffffffffffffffffffffffffffffffffffffffffffffff821415610d3957610d38610d44565b5b600182019050919050565b7f4e487b7100000000000000000000000000000000000000000000000000000000600052601160045260246000fd5b7f4e487b7100000000000000000000000000000000000000000000000000000000600052602260045260246000fd5b7f4e487b7100000000000000000000000000000000000000000000000000000000600052604160045260246000fd5b6000601f19601f8301169050919050565b610deb81610c1a565b8114610df657600080fd5b5056fe25732077617665642120546865792776652077617665642025642074696d65732ea26469706673582212200835adeb2fb0c0e5e41003b6a3e8e6848252279aa3363523ad74ff8725de2ee564736f6c63430008040033",
  "linkReferences": {},
  "deployedLinkReferences": {}
}