{
  "_format": "hh-sol-artifact-1",
  "contractName": "Wave",
  "sourceName": "contracts/Wave.sol",
  "abi": [
    {
      "inputs": [],
      "stateMutability": "nonpayable",
      "type": "constructor"
    },
    {
      "inputs": [],
      "name": "getTotalWaves",
      "outputs": [
        {
          "internalType": "uint256",
          "name": "",
          "type": "uint256"
        }
      ],
      "stateMutability": "view",
      "type": "function"
    },
    {
      "inputs": [],
      "name": "wave",
      "outputs": [],
      "stateMutability": "nonpayable",
      "type": "function"
    },
    {
      "inputs": [
        {
          "internalType": "address",
          "name": "",
          "type": "address"
        }
      ],
      "name": "waveCounts",
      "outputs": [
        {
          "internalType": "uint256",
          "name": "",
          "type": "uint256"
        }
      ],
      "stateMutability": "view",
      "type": "function"
    }
  ],
  "bytecode": "0x608060405234801561001057600080fd5b506100596040518060400160405280601d81526020017f546869732069732054686f74277320666972737420636f6e747261637400000081525061005e60201b6101d71760201c565b6101e1565b6100fa81604051602401610072919061015f565b6040516020818303038152906040527f41304fac000000000000000000000000000000000000000000000000000000007bffffffffffffffffffffffffffffffffffffffffffffffffffffffff19166020820180517bffffffffffffffffffffffffffffffffffffffffffffffffffffffff83818316178352505050506100fd60201b60201c565b50565b60008151905060006a636f6e736f6c652e6c6f679050602083016000808483855afa5050505050565b600061013182610181565b61013b818561018c565b935061014b81856020860161019d565b610154816101d0565b840191505092915050565b600060208201905081810360008301526101798184610126565b905092915050565b600081519050919050565b600082825260208201905092915050565b60005b838110156101bb5780820151818401526020810190506101a0565b838111156101ca576000848401525b50505050565b6000601f19601f8301169050919050565b610696806101f06000396000f3fe608060405234801561001057600080fd5b50600436106100415760003560e01c806318c69afc146100465780636fe15b44146100765780639a2cdc0814610080575b600080fd5b610060600480360381019061005b91906103e9565b61009e565b60405161006d91906104f9565b60405180910390f35b61007e6100b6565b005b61008861018c565b60405161009591906104f9565b60405180910390f35b60016020528060005260406000206000915090505481565b60003390506000808154809291906100cd9061059f565b9190505550600160008273ffffffffffffffffffffffffffffffffffffffff1673ffffffffffffffffffffffffffffffffffffffff16815260200190815260200160002060008154809291906101229061059f565b91905055506101896040518060600160405280602181526020016106406021913933600160008573ffffffffffffffffffffffffffffffffffffffff1673ffffffffffffffffffffffffffffffffffffffff16815260200190815260200160002054610270565b50565b60006101cf6040518060400160405280601681526020017f5765206861766520256420746f74616c2077617665730000000000000000000081525060005461030f565b600054905090565b61026d816040516024016101eb9190610469565b6040516020818303038152906040527f41304fac000000000000000000000000000000000000000000000000000000007bffffffffffffffffffffffffffffffffffffffffffffffffffffffff19166020820180517bffffffffffffffffffffffffffffffffffffffffffffffffffffffff83818316178352505050506103ab565b50565b61030a8383836040516024016102889392919061048b565b6040516020818303038152906040527f07c81217000000000000000000000000000000000000000000000000000000007bffffffffffffffffffffffffffffffffffffffffffffffffffffffff19166020820180517bffffffffffffffffffffffffffffffffffffffffffffffffffffffff83818316178352505050506103ab565b505050565b6103a782826040516024016103259291906104c9565b6040516020818303038152906040527f9710a9d0000000000000000000000000000000000000000000000000000000007bffffffffffffffffffffffffffffffffffffffffffffffffffffffff19166020820180517bffffffffffffffffffffffffffffffffffffffffffffffffffffffff83818316178352505050506103ab565b5050565b60008151905060006a636f6e736f6c652e6c6f679050602083016000808483855afa5050505050565b6000813590506103e381610628565b92915050565b6000602082840312156103fb57600080fd5b6000610409848285016103d4565b91505092915050565b61041b81610530565b82525050565b600061042c82610514565b610436818561051f565b935061044681856020860161056c565b61044f81610617565b840191505092915050565b61046381610562565b82525050565b600060208201905081810360008301526104838184610421565b905092915050565b600060608201905081810360008301526104a58186610421565b90506104b46020830185610412565b6104c1604083018461045a565b949350505050565b600060408201905081810360008301526104e38185610421565b90506104f2602083018461045a565b9392505050565b600060208201905061050e600083018461045a565b92915050565b600081519050919050565b600082825260208201905092915050565b600061053b82610542565b9050919050565b600073ffffffffffffffffffffffffffffffffffffffff82169050919050565b6000819050919050565b60005b8381101561058a57808201518184015260208101905061056f565b83811115610599576000848401525b50505050565b60006105aa82610562565b91507fffffffffffffffffffffffffffffffffffffffffffffffffffffffffffffffff8214156105dd576105dc6105e8565b5b600182019050919050565b7f4e487b7100000000000000000000000000000000000000000000000000000000600052601160045260246000fd5b6000601f19601f8301169050919050565b61063181610530565b811461063c57600080fd5b5056fe25732077617665642120546865792776652077617665642025642074696d65732ea26469706673582212208efb333ec8df8d7e27d23d19a4514893f9a5cc49030101e9872b37da2d1174e864736f6c63430008040033",
  "linkReferences": {},
  "deployedLinkReferences": {}
}